:020000040800F2
:1000000088400020A11C0008A91C0008AB1C0008A7
:10001000AD1C0008AF1C0008B11C00080000000067
:10002000000000000000000000000000B31C0008F9
:10003000B51C000800000000B71C0008B91C00082F
:10004000BB1C0008BB1C0008BB1C0008BB1C000834
:10005000BB1C0008BB1C0008BB1C0008BB1C000824
:10006000BB1C0008BB1C0008BB1C0008BB1C000814
:10007000BB1C0008BB1C0008BB1C0008BB1C000804
:10008000BB1C0008BB1C0008BB1C0008BB1C0008F4
:10009000BB1C0008BB1C0008BB1C0008890C000826
:1000A000BB1C0008BB1C0008BB1C0008BB1C0008D4
:1000B0007F070008BB1C0008D5070008BB1C000810
:1000C000BB1C0008BB1C0008BB1C0008BB1C0008B4
:1000D000BB1C000873050008BB1C0008BB1C000803
:1000E000BB1C0008BB1C0008BB1C0008BB1C000894
:1000F000BB1C0008BB1C0008BB1C0008BB1C000884
:10010000BB1C0008BB1C0008BB1C0008BB1C000873
:10011000BB1C0008BB1C0008BB1C0008BB1C000863
:10012000BB1C0008BB1C0008BB1C0008BB1C000853
:1001300000F002F800F03AF80AA090E8000C8244BF
:100140008344AAF10107DA4501D100F02FF8AFF29C
:10015000090EBAE80F0013F0010F18BFFB1A43F0A5
:1001600001031847D4250000F4250000103A24BFED
:1001700078C878C1FAD8520724BF30C830C144BF0C
:1001800004680C607047000000230024002500264E
:10019000103A28BF78C1FBD8520728BF30C148BFEA
:1001A0000B6070471FB51FBD10B510BD01F0EAFF11
:1001B0001146FFF7F7FF01F0D3FA02F008F803B495
:1001C000FFF7F2FF03BC02F00BF8000030BF0000A5
:1001D0004FF0E021096921F004014FF0E0221161A4
:1001E000C21700EB5272C2F3C702234B1A701946B2
:1001F000097801EB4102C2EBC1114FF6FF7202EA2E
:10020000C1011E4A1180704701461C4A12884A43A8
:100210004FF0E0235A6100229A6101221A6100BF67
:100220004FF0E022106900F001021AB100F48032B0
:10023000002AF5D000224FF0E0231A619A6170473E
:1002400001460D4A12784A434FF0E0235A610022DA
:100250009A6101221A6100BF4FF0E022106900F09C
:1002600001021AB100F48032002AF5D000224FF0CA
:10027000E0231A619A61704700000020020000200C
:10028000AA4A0A400243AA4B1A6070470146072354
:1002900023EA01021202A64B1B1D18684FF6FF034A
:1002A0001840A44B18431043A14B1B1D1860704706
:1002B0002DE9F0478046894614461D462046E11741
:1002C00004EB9171C1F3870AE11704EB9171891076
:1002D000A4EB8101CFB2042000EBC700C7B22846CF
:1002E000FFF7D4FFC5F1040008FA00F60F202841FB
:1002F00000EA0900064306F00F06202C09DA8E48B2
:1003000001680120A04001434FF0E020C0F8001137
:100310000BE08948001D0068A4F1200101228A40F9
:1003200010434FF0E021C1F80401844850F82A003E
:1003300006FA07F10843814941F82A00BDE8F08731
:1003400070B504460B46CE1701EB9676C6F38700D0
:10035000CE1701EB9676B610A1EB8606B606350EE3
:10036000774B9B6943F00103754EB3614FEAB63397
:1003700053F820300F26AE40B343724E46F820307B
:10038000334653F8203004FA05F61E436D4B43F80C
:1003900020606D4B1B6801268E4033436A4E3360EC
:1003A00002F0010343B1684B0C331B6801268E40F9
:1003B0003343654E0C36336002F0020343B1624BA7
:1003C00008331E6801238B401E435F4B08331E60B9
:1003D00070BD00B500205A490861C860142048610A
:1003E00000208861C8610846006840F0010008608C
:1003F0000846406855490840514948600846006829
:10040000534908404E4908600846006820F480209F
:1004100008600846406820F4FE00486000208860BC
:1004200000214FF00060FFF72BFF00BD10B54048E2
:100430000830006840F004003D4908310860404839
:10044000C06940F080503E49C8614248406840F46D
:100450008070404948600846006840F00400086029
:100460000846006840F002000860FFF7AFFE10BDCC
:100470003048001D2E49091D086070470146490695
:100480002F4A926942F001022D4B9A612D4A083A97
:10049000526822F0E0622B4B083B5A601A465268C1
:1004A0000A435A60704730B504460025FFF791FFB4
:1004B0002348006840F480302149086000BF20488C
:1004C0000068400C0028FAD04FF480601C49486056
:1004D000A01EC4B20846406840EA8440486008460E
:1004E000406840F4803048601B48006840F03200AB
:1004F000194908601248006840F08070104908608F
:1005000000BF0F480068400E0028FAD00C48406831
:1005100040F002000A49486005E009484068C0F31D
:10052000870505F00305022DF7D130BD80FFFF1FC1
:1005300008ED00E00000FA0500E100E000E400E062
:100540000010024008000140000401400000FFF8D4
:10055000FFFFF6FE007000400020024010B566224A
:100560007249734801F047FD6621704801F0BAFDF9
:1005700010BD10B56F48008800F0200000B36D4832
:10058000001D0088C4B26948B0F86400642815DA18
:10059000002000F006F96548B0F8640010B90120A9
:1005A00000F002F96148B0F86410B0F86400401C33
:1005B0005E4AA2F864001046445401E0FFF7CEFF03
:1005C00010BD70B504460D4642F210706043B0FB9A
:1005D000F5F0401D0A21B0FBF1F606EB8600012183
:1005E000C1EB4006B0B241F61F4100F008F970BD02
:1005F0002DE9F05F05460E46300101F03DFF8146D2
:100600004D4905FB01F001F037FF8246494601F0F4
:1006100051FE0746384601F00FFF84B2204601F034
:100620002BFF8346394602F007F882464FF083419C
:1006300001F036FF814601F0FFFE80464FF6FF7065
:1006400000EA041404EB080084B23C48806940F0DE
:1006500004003A4988610846806940F48040886116
:100660003748006820F47F60354908600846006814
:1006700040F40B6008603148C06840F480402F4966
:10068000C8600846C06820F48040C8602948083027
:100690000480001D008842F20C01084325490C31FA
:1006A00008800846008840F480700880084600886A
:1006B00040F0200008800223252203210120FFF7BB
:1006C000F7FD31462820FFF77CFFBDE8F09F10B50D
:1006D00004461748B0F8640050B166221449204619
:1006E00001F089FC6621124801F0FCFC012010BDDC
:1006F0000020FCE70146B1F86400642801DD002019
:10070000704700220CE0885C0A4B1B1D188000BF5C
:100710000848008800F040000028F9D0501C82B240
:10072000B1F864009042EEDC0120E9E740000020CF
:10073000A60000200038014040420F000010024097
:100740000408014070B505460C463E48C06940F0BB
:1007500001003C49C861880485850485808940F092
:100760000100890488810846008840F00100088063
:1007700002231C2203210846FFF79AFD70BD10B525
:100780004FF08040008A00F0010048B100F089FF7E
:100790004FF08040008A20F001004FF08041088235
:1007A00010BD29490880704758B127492439098864
:1007B00041F00101244A243A11800021224A11808B
:1007C00007E021492439098821F001011E4A243A11
:1007D0001180704710B51C481438008800F00100E3
:1007E00060B1FFF7BBFE18481438008820F0010004
:1007F0001549143908800020FFF7D6FF10BD70B5E9
:1008000004460D460F48C06940F004000D49C86118
:100810000D4808300480001F05800B4818380088F8
:1008200040F001000849183908800748243800883A
:1008300005492439088002231E2203210120FFF7E5
:1008400037FD70BD001002402408004070B5054619
:100850000C460020FD490860284600F04DFB064686
:10086000204600F049FB0120F949C1F8B0013046AB
:1008700070BD2DE9F04107460C4615460020F349AE
:100880000860384600F038FB8046002605E014F882
:10089000010B00F031FB701CC6B2AE42F7DB012049
:1008A000EA4908604046BDE8F08110B50020E949FA
:1008B00008600522E8492A20FFF7DBFF01212120FB
:1008C000FFF7C4FF01212220FFF7C0FFE248401FCD
:1008D000C17A2520FFF7BAFF20213120FFF7B6FFAC
:1008E00027212620FFF7B2FF0F212020FFF7AEFFC0
:1008F0000120DA49C1F8A001AA20D749491F88760A
:1009000010BD10B54FF43761D54801F00DFC4FF420
:100910003761D44801F008FC4FF43761D24801F048
:1009200003FCCF480146C1F8640BC1F8680B0020F6
:10093000A1F86C0BCB480146C1F8640BC1F8680BF9
:100940000020A1F86C0BC8480146C1F8640BC1F83F
:10095000680B0020A1F86C0B10BD2DE9F041074693
:100960000D4616460020B9490860384600F0C4FA22
:100970008046002405E0FF2000F0BEFA2855601CE8
:10098000C4B2B442F7DB0120B04908604046BDE87C
:10099000F0811CB5B5A103C9CDE90001022000F02A
:1009A00027FB052269463020FFF763FF05226946D1
:1009B0001020FFF7D2FF002406E01DF80400A52850
:1009C00000D003E0601CC4B2052CF6DB00BF052C90
:1009D00001D001201CBD0020FCE710B5A5488069AE
:1009E00040F00800A34988610846806940F0200073
:1009F0008861A148006820F470209F49086008467B
:100A0000006840F4403008609B480830006840F4BB
:100A100080509949083108609848006820F0FF002C
:100A2000964908600846006840F0830008609348D3
:100A30000830006840F4407090490831086000F0C8
:100A400084FA8F48008820F040008D4908800846CD
:100A5000008820F0020008800846008820F001008D
:100A600008800846008840F040000880002079494E
:100A7000086001207649C1F8B001FFF78AFFFFF74F
:100A800040FFFF21E220FFF7E1FEFF21E120FFF719
:100A9000DDFEF0212720FFF7D9FE64206E49491FB3
:100AA000C872FFF702FF10BD70B504460020674909
:100AB0000860204600F020FAFF2000F01DFA0546ED
:100AC00001206349C1F8B001284670BD10B500206F
:100AD0006049086005226049491F3020FFF7C9FEC0
:100AE00005225D49491F2A20FFF7C3FE012121206D
:100AF000FFF7ACFE01212220FFF7A8FE1F212420D2
:100B0000FFF7A4FE5448401FC17A2520FFF79EFE40
:100B100027212620FFF79AFE0E212020FFF796FEC0
:100B200001204E49C1F8A001BB204B49491F8876DE
:100B300010BD2DE9F04106460C46FF27FFF7C6FF22
:100B400000204449086020223146A020FFF791FE92
:100B500001204249C1F8A00103E0641E0120FFF713
:100B60006FFB3C487C38006808B1002CF5DA0720A0
:100B7000FFF79AFF054629462720FFF767FE002C5E
:100B800004DAFF21E120FFF761FE302705F01000B5
:100B900028B1FF21E120FFF759FE102708E005F0FA
:100BA000200008B1202703E0FF21E120FFF74EFEDF
:100BB000FFF77BFE3846BDE8F08170B50546264854
:100BC000401F807EAA2817D10720FFF76DFF04463B
:100BD00021462720FFF73AFE04F0400060B12022B2
:100BE00029466120FFF7B9FEFF21E220FFF72EFE24
:100BF000FFF75BFE002070BD0120FCE770B50446E6
:100C00000D46B4F96C0B50283CDA04F664342089A4
:100C1000401C00B2208120222946206801F0EBF917
:100C200095F82000216881F82000688C21684884AC
:100C30002068243020602168A4F6643404F5346010
:100C4000814201D1C4F8644B002070BDB0812142C3
:100C500000802142A08122426123002000802242A4
:100C60000C0100207C0C0020EC170020A5A5A5A5F8
:100C7000A500000000100240040C014004140140D3
:100C800000380040022070BD10B58AB00720FFF781
:100C90000BFF044604F0400030B101A8FFF78DFFC0
:100CA00001A99148FFF7AAFF4FF400708F4908602F
:100CB0000AB010BD00B589B06846FFF77EFF18B9CD
:100CC00069468948FFF79AFF09B000BD10B50122B7
:100CD00009210320FFF734FB0223172203211846C2
:100CE000FFF7E6FA10BD0146B1F86C0B80B2704711
:100CF00070B504460D462046FFF7F5FF012801DADE
:100D0000052070BD04F66834A088401E00B2A080A3
:100D100020222846216801F06EF9206890F8200012
:100D200085F820002068408C68842068243020608A
:100D30002168A4F6683404F53460814201D1C4F816
:100D4000684B0020DDE710B50446202C03D10020BD
:100D50006749C87617E06648C07E401C6449C8767B
:100D60000846C07E05280EDDFF21E220FFF76EFD5C
:100D7000FF21E120FFF76AFDF0212720FFF766FD44
:100D800000205B49C87610BD10B58AB00720FFF778
:100D90008BFE044604F0010090B901A95548FFF705
:100DA000A7FF68B9BDF826005149087144F25061A7
:100DB00001A8FFF7BEFE4E490873087BFFF7C3FF8B
:100DC00001200AB010BD30B589B004460D4620227E
:100DD0002146684601F00FF9ADF8225069464548B2
:100DE000FFF70CFF10B9002009B030BD0120FBE770
:100DF00010B58AB0044601A93B48FFF779FF38B91E
:100E0000202201A9204601F0F6F800200AB010BD0A
:100E10000120FBE770B500243548007B10281ED068
:100E2000202802D0302832D118E031480069401C17
:100E30002F49086100200873084600694969441871
:100E40002B4800696421A0FB015001462246002383
:100E5000284601F0ACF82649088318E000BF244872
:100E60004069401C22494861002008730846006917
:100E7000496944181E4800696421A0FB01512246BB
:100E80000023284601F093F81949088300BF00BFEA
:100E900070BD1748008B70471548407A704714485A
:100EA0000079704710B50446114821680160216837
:100EB000C0F80510FFF7F9FC10BD00200C490861CF
:100EC000486108730883704700B50246FFF7F5FFD5
:100ED00000BD07490871704705494872704710B551
:100EE000FFF7E8FE10BD00007C0C00201404014058
:100EF0005C2300200C0100200246002107E0481C72
:100F000081B24FF6FE70814201DB002070474348FA
:100F1000008800F002000028F1D04048001D028047
:100F2000002107E0481C81B24FF6FE70814201DBD0
:100F30000020EBE73948008800F001000028F1D0DC
:100F40003648001D0088C0B2E0E700B5344880692B
:100F500040F00800324988610846C06940F480408A
:100F6000C86130480068C0F313002E490860084685
:100F700000682D4908432B4908602A48083000685A
:100F800040F4604027490831086024480838008848
:100F90002249083908800846008840F4007008801B
:100FA0000846008840F4807008800846008840F0B9
:100FB000040008800846008808800846008840F041
:100FC000020008800846008840F0010008800846BA
:100FD000008840F01800088008460088088008460D
:100FE000008840F040000880FF20FFF785FF00BD2B
:100FF00000F007000949083909884FF6C772114007
:10100000064A083A11801146098841EAC001118058
:101010001146098841F040011180704708380040AE
:1010200000100240040C01400000B0BBC448C54998
:101030004860C54848607047C248006940F0800079
:10104000C04908617047BF48C16801F0010008B19C
:101050000120704701F0040008B10220F9E701F017
:10106000100008B10320F4E70020F2E770B5044651
:1010700000BFFFF7E8FF0546012D00D006E0012084
:10108000FFF7DEF8601E84B2002CF2D100BF04B975
:10109000FF25284670BD70B50546002445F6FF7053
:1010A000FFF7E4FF0446C4B9A648006940F0020017
:1010B000A449086108464561006940F040000861A4
:1010C00045F6FF70FFF7D2FF0446012C05D09D487E
:1010D000006920F002009B490861204670BD70B590
:1010E00005460E46FF20FFF7C1FF044694B9954818
:1010F000006940F00100934908612E80FF20FFF74E
:10110000B5FF0446012C05D08E48006920F001008F
:101110008C490861204670BD0146088870472DE95A
:10112000F04105460E461746002407E036F8141035
:101130002846FFF7D4FFAD1C601C84B2BC42F5DB2F
:10114000BDE8F08130B503460C461546002207E0A5
:101150001846FFF7E1FF24F812009B1C501C82B2D6
:10116000AA42F5DB30BD2DE9F05F80468A4617467E
:10117000B8F1006F02D37548804501D3BDE8F09FF8
:10118000FFF754FFA8F1006B4FEADB25CBF34909C9
:10119000C9F58064A74200DC3C464DE04FF0006199
:1011A00001EBC5204A146A49FFF7CCFF00260BE08B
:1011B00009EB0600664931F810004FF6FF718842CE
:1011C00000D003E0701C86B2A642F1DB00BFA6424D
:1011D0001BDA4FF0006101EBC520FFF75CFF002632
:1011E00008E03AF8160006EB0901594A22F8110006
:1011F000701C86B2A642F4DB4FF0006101EBC52003
:101200004A145349FFF78BFF04E0224651464046FB
:10121000FFF785FFA74200D10FE06D1C4FF00009DA
:101220000AEB440AA044381B87B2B7F5806F02DD91
:101230004FF4806400E03C46B0E700BFFFF7FCFEDF
:1012400000BF9BE72DE9F04704460E464FF000092A
:101250000025AA46B4F1006F02D304F0010008B1E2
:10126000BDE8F087FFF7E2FE3648006820F48060B2
:1012700034490860254604EB460A364885421AD2AE
:1012800016E02846FFF748FF4FF6FF7188420ED060
:10129000A5F100684FEAD8274FF0006101EBC720A5
:1012A000FFF7F9FE8146B9F1000F01D002E0AD1C55
:1012B0005545E6D300BF2348006840F480602149CB
:1012C0000860FFF7B9FE00BFCAE713B50446012264
:1012D00001A92046FFF747FF1CBD2DE9F047044652
:1012E0000D4616460027B846B946B4F1006F02D342
:1012F00004F0010008B1BDE8F087FFF797FE114840
:10130000006820F480600F490860A04604EB46099D
:101310005FB907E029882046FFF7E1FE00B103E04E
:10132000A41CAD1C4C45F5D300BF0648006840F432
:10133000806004490860FFF77FFE00BFDBE7000024
:101340002301674500200240AB89EFCD000004086F
:101350007C2300200000FF1F10B541F61F4109202B
:10136000FFF7F0F910BDEC480188491C028861F3D1
:10137000090202800188C1F30901B1F57A7F45DBDA
:1013800001886FF3090101800188012202EB91219C
:10139000028861F38F22028001883C22B2EB912FF8
:1013A00034DC018821F47C4101800168090C491C6E
:1013B000026861F3154202600168C1F305413C29EE
:1013C00024DB016821F47C1101600168890D491C4E
:1013D000026861F39A5202600168C1F384511829CE
:1013E00014DB016821F0F86101608188491C4268C2
:1013F00061F30A0242608188C1F30A0140F2FF7280
:10140000914203DB41686FF30A014160704710B5F8
:1014100000F03DFC10BD30B502460C460021C4EB87
:10142000C400BE4D05EB80010AB9002030BD087D27
:10143000052801D30020F9E7002312E051F823002A
:1014400000B10CE00220107350688D6928441060D0
:1014500041F82320087D401C08750120E6E7581C50
:10146000C3B2052BEAD30020E0E730B502460C46B4
:101470000023C4EBC400A94D05EB80030AB900208A
:1014800030BD002110E053F82100904200D009E067
:10149000002043F8210001201073187D401E1875AC
:1014A0000120EDE7481CC1B20529ECD30020E7E795
:1014B00070B504460D460CB9002070BD207BB8B154
:1014C00001280ED0022802D0032813D10AE02946B1
:1014D0002046FFF7CAFF29462046FFF79CFF012060
:1014E000EBE700BF29462046FFF795FF0120E4E720
:1014F0000020E2E70020E0E72DE9F04104460D4638
:1015000016461F46DDF8188014B90020BDE8F081AA
:101510000020206065602661A7600120207341469D
:101520002046FFF7C5FF0120F0E710B500F06CFB87
:10153000FFF7D5FC10BD10B500F06AFB00F0A6FB6C
:1015400010BD10B500F068FB10BD10B500F056FBE3
:1015500000F09BFB10BD7047704710B500201BE0EA
:10156000002109E00022C0EBC0036C4C04EB8303B4
:1015700043F821204A1CD1B20529F3D30022C0EB45
:10158000C003664C04EB83031A75C0EBC00304EB85
:1015900083039A61421CD0B20328E1DB10BD08B579
:1015A000FFF7DBFF00205E4B0222012100905D4827
:1015B000FFF7A2FF00205C4B0222052100905B4850
:1015C000FFF79AFF01205A4B02224FF47A710090E4
:1015D0005848FFF791FF0120574B02220521009048
:1015E0005648FFF789FF0120554B02220A2100903F
:1015F0005448FFF781FF0120534B0222014600901F
:101600005248FFF779FF0120514B022240F24D1161
:1016100000905048FFF770FF08BD4F4800687047C2
:101620003D49016070472DE9F04106460F46002410
:10163000C7EBC700394901EB80043068A061002581
:101640002BE054F8250000B925E054F82510A069D6
:10165000096888421ED354F82500806818B154F8F0
:1016600025108868804754F825000069022808D1B1
:1016700054F82510A0694968084454F825100860FA
:1016800008E0032054F82510087354F82500394663
:10169000FFF7EBFE00BF681CC5B2052DD1D3BDE836
:1016A000F08110B52C480068401C2B4908600021CF
:1016B0002948FFF7B8FFFFF756FE10BD10B501210E
:1016C0002548FFF7B0FF10BD24480068401C23499F
:1016D0000860704700B970470021017381600160A4
:1016E000016100BFF7E710B504460CB9002010BD3A
:1016F0002046FFF7EFFF00240120F8E770B504460D
:101700000D460CB9002070BD29462046FFF7ADFEFE
:10171000F9E7704770477047040000207C2B0020D9
:1017200059150008D02B002057150008E42B002085
:101730004B150008342C002043150008482C0020CD
:10174000371500085C2C00202B150008702C002099
:101750000F140008842C00200C000020140000202E
:101760000920FEF7A0FE4820FEF732FD4FF4165187
:101770004820FEF73DFF41F61F410920FEF7E2FF3A
:10178000FFF70DFF00F02BF801E0FFF797FFFCE7F4
:1017900038B500200090F84C4AF6BB20009000209D
:1017A000F649487064208870012008708021F44850
:1017B00000F0BAFCF248BDF800100180EF4949780A
:1017C0008171EE498978C171EC4909784177C0F897
:1017D000024040220146EB48FFF7C5FC38BD08B582
:1017E000002000909C21E54800F09EFC2021E64866
:1017F00000F09AFC1821E54800F096FC1821E44816
:1018000000F092FC4022DE49DE48FFF79BFCDC48FA
:1018100000680090D948DA49C9798170D849097AB5
:10182000C170D749497F01700020D4494870BDF884
:1018300000004AF6BB21884201D0FFF7A9FFCF493B
:101840004878FFF749FBCE48801CFFF72BFBCB49BC
:101850008878FFF739FBFFF7C0F8002008BD10B506
:1018600002460B464FF48034002103E0505C241AFA
:10187000481CC1B29942F9DBA0B210BD78B504464C
:10188000257860190088ADF8000029462046FFF74A
:10189000E6FF06460098B04201D1012078BD002045
:1018A000FCE7F0B589B005460E461446202101A894
:1018B00000F03AFC0527B148001D005D01281BD14E
:1018C0008DF80470FFF7E8FA8DF8050081208DF897
:1018D00006008DF807508DF808609DF8041001A8E7
:1018E000FFF7BDFF009001A83844BDF8001001804B
:1018F000214601A8FFF767FA09B0F0BD30B589B0FD
:10190000202101A800F010FC07259C48D0F8880091
:10191000401C9A49C1F88800084690F8980038BBE6
:10192000002423E09548001D005D01281CD18DF89E
:101930000450FFF7B1FA8DF8050080208DF80600FD
:101940008E4890F888008DF807009DF8041001A8D3
:10195000FFF785FF009001A82844BDF80010018022
:10196000214601A8FFF72FFA601CC4B2402CD9DB36
:1019700009B030BD70B58AB004460E467F4890F875
:101980009800F8B9202102A800F0CEFB04258DF8BC
:101990000850FFF781FA8DF8090042208DF80A00FF
:1019A0008DF80B409DF8081002A8FFF758FF019032
:1019B00002A82844BDF804100180314602A8FFF7B0
:1019C00002FA00BF0AB070BD724A12680A4402608F
:1019D000704710B50446402C05DB6849087821465D
:1019E000FFF7C8FF1DE0654890F89800B8B9634854
:1019F000D0F8940088B901216048001D01550021EC
:101A0000403001556048047764215C489430FFF70A
:101A1000DBFF0420594981F89800AA2010BD00205E
:101A2000FCE7EE20FAE70246782A09DC5348827088
:101A3000584800680844514BC3F88C00AA207047EE
:101A4000EE20FCE710B54D48D0F88C0051490968EC
:101A5000884214D24948D0F88C0080B14749887830
:101A6000FFF732FA464845498978C171402201465C
:101A70004448FFF778FB00204049C1F88C003F48FC
:101A8000D0F8900043490968884209D23B48D0F811
:101A9000900028B10020394981F89800C1F89000E1
:101AA0003648D0F894003B490968884216D233483A
:101AB000D0F8940090B136483149D1F81310C16084
:101AC0002F49D1F81710416000202C49C1F894002B
:101AD0004FF4967129489030FFF776FF10BD4028EB
:101AE00003DA0022254944310A5470472DE9F041B8
:101AF00000272948FFF77CF9002857D12648857828
:101B00004478FFF7BBFE00284AD0802D24D004DCA7
:101B1000012D25D0332D42D127E0812D02D0832DF8
:101B20003DD13BE01C48C67890F80480422E11D18C
:101B300012480078A0420CD110480078401C0F4990
:101B400008700F4809784177402201460D48FFF799
:101B50000AFB00BF00BF22E02046FFF7C0FF1EE0E7
:101B60002046FFF736FF074619E00B49C878642185
:101B7000FFF759FF074612E015CD5B07B82C002090
:101B8000A42D002000540108542D0020742D0020A5
:101B90008C2D00200C000020982C002000BF00BFDE
:101BA00027B1224639462846FFF77BFEBDE8F08183
:101BB0001B48B0F9840070474021194AA2F88410EC
:101BC000002018E016494431095C491CCAB2144986
:101BD00044310A54095C0A290BDD1149B1F884101B
:101BE000491E09B20E4AA2F8841000220C49091DB0
:101BF0000A54411CC8B24028E4DB704710B5FFF717
:101C00007DFEFFF7D9FF10BD10B5FFF76FFF10BDC8
:101C100010B5FFF717FF10BD10B5FFF7B5F810BDF1
:101C2000B82C002038B5044600200090B4F8050018
:101C3000ADF80000E0798DF802001549009888425F
:101C40000ED1601CFFF72EF91248D4F80110C0F82D
:101C50000210402201461048FFF785FAAA2038BD3D
:101C6000EE20FCE70D480079401C0C49087108463D
:101C700000790A2801DD0020C8707047002007495C
:101C800008710120C87070477047704770477047EF
:101C9000EFCDAB00A42D002000540108240000204B
:101CA0000948804709480047FEE7FEE7FEE7FEE7F0
:101CB000FEE7FEE7FEE7FEE7FEE7FEE7044805492C
:101CC000054A064B70470000BF1D0008310100089F
:101CD000882E002088400020883000208830002096
:101CE0000CB50020019000906C48006840F48030F2
:101CF0006A49086000BF6948006800F4003000903D
:101D00000198401C0190009818B90198B0F5A06F97
:101D1000F1D16248006800F4003010B10120009059
:101D200001E0002000900098012843D15C48006841
:101D300040F010005A4908600846006820F003008F
:101D400008600846006840F0020008605348406898
:101D5000524948600846406848600846406840F478
:101D6000806048600846406820F47C10486008465F
:101D7000406840F4E81048600846006840F0807011
:101D8000086000BF4548006800F000700028F9D0E6
:101D90004248406820F003004049486008464068D7
:101DA00040F00200486000BF3C48406800F00C0072
:101DB0000828F9D10CBD10B5FFF792FF10BD10B582
:101DC0003648006840F00100344908600846406821
:101DD00034490840314948600846006832490840A3
:101DE0002E4908600846006820F4802008600846F4
:101DF000406820F4FE0048604FF41F008860FFF741
:101E0000DAFF4FF000602949086010BD10B50021CD
:101E100000200022214B5B6803F00C0121B1042952
:101E200006D0082928D107E0214B224C236027E067
:101E30001F4B204C236023E0184B5B6803F47010A9
:101E4000164B5B6803F48032022303EB904022B907
:101E5000194B4343174C23600DE0104B5B6803F4B0
:101E6000003323B1144B4343124C236003E0104B67
:101E70004343104C236003E00D4B0E4C236000BF26
:101E800000BF064B5B68C3F303130C4CE15C094BCA
:101E90001B68CB40074C236010BD000000100240BF
:101EA000002002400000FFF8FFFFF6FE08ED00E012
:101EB00000127A002C00002000093D0030000020B4
:101EC00053EA020C00F069802DE9F04B4FF0000658
:101ED000002B1FBFB3FA83F503FA05F424FA05F6C5
:101EE0005E4012BF1643B2FA82F502FA05F4C5F15C
:101EF00020051EBF22FA05FC44EA0C04203556EAF0
:101F0000044C4FEA144418BF641C4FF000084FF013
:101F10000009904271EB030C39D3002919BFB1FAC3
:101F200081F701FA07F6B0FA80F700FA07F6C7F171
:101F300020071EBF20FA07FC46EA0C062037B6FB36
:101F4000F4FCA7EB0507103F07F01F0BCBF12006B1
:101F50000CFA0BFB2CFA06F644BFB3460026202FE2
:101F6000A4BF5E464FF0000B5BEA060C08BF4FF0C3
:101F7000010B19EB0B09ABFB027C48EB0608C01BFD
:101F800006FB02CC0BFB03CC71EB0C01C1E70B464B
:101F9000024641464846BDE8F08B13B54FF00000BD
:101FA0004FF00001AFF30080BDE81C40704710B552
:101FB0004C1084EA530404D54042C1F1000138BFFB
:101FC000491E1B4204D55242C3F1000338BF5B1EB9
:101FD000FFF776FF14F0804F04D04042C1F10001BA
:101FE00038BF491E14F0004F04D05242C3F1000321
:101FF00038BF5B1E10BD032A40F2308010F0030C86
:1020000000F0158011F8013BBCF1020F624498BF4B
:1020100011F801CB00F8013B38BF11F8013BA2F1E8
:10202000040298BF00F801CB38BF00F8013B11F063
:10203000030300F02580083AC0F0088051F8043B03
:10204000083A51F804CBA0E80810F5E7121D5CBF70
:1020500051F8043B40F8043BAFF30080D20724BFA3
:1020600011F8013B11F801CB48BF11F8012B24BF37
:1020700000F8013B00F801CB48BF00F8012B704786
:1020800010B5203AC0F00B80B1E81850203AA0E813
:102090001850B1E81850A0E81850BFF4F5AF5FEA47
:1020A000027C24BFB1E81850A0E8185044BF18C9FA
:1020B00018C0BDE810405FEA827C24BF51F8043BA1
:1020C00040F8043B08BF7047D20728BF31F8023BF5
:1020D00048BF11F8012B28BF20F8023B48BF00F889
:1020E000012B70474FF000020429C0F0128010F05D
:1020F000030C00F01B80CCF1040CBCF1020F18BFE4
:1021000000F8012BA8BF20F8022BA1EB0C0100F076
:102110000DB85FEAC17C24BF00F8012B00F8012B49
:1021200048BF00F8012B70474FF0000200B513467E
:1021300094469646203922BFA0E80C50A0E80C50E7
:10214000B1F12001BFF4F7AF090728BFA0E80C5098
:1021500048BF0CC05DF804EB890028BF40F8042B91
:1021600008BF704748BF20F8022B11F0804F18BFFE
:1021700000F8012B70477047704770470048704760
:10218000242E00207546FFF7F9FFAE46050069468C
:10219000534620F00700854618B020B5FFF78EFDA6
:1021A000BDE820404FF000064FF000074FF0000858
:1021B0004FF0000B21F00701AC46ACE8C009ACE8D9
:1021C000C009ACE8C009ACE8C0098D46704710B53D
:1021D0000446AFF300802046BDE81040FDF7EFBF96
:1021E00001491820ABBEFEE7260002007047000040
:1021F00090EA010F48BF81F0004100F12E82421A9F
:102200003CBF801A89184FEAD0524FF07F4C1CEA2D
:10221000410FA2EBD15318BF9CEA026F00F03B8044
:102220004FF0004C4CEA00204CEA012121FA03FC5B
:1022300010EB0C0C1ED202F1FF325FEA1C2040EBC7
:10224000C25038BF70471CF07F0F4FEA400C18BFD8
:10225000BCF17F4F38BF7047C3F12003994008BFDE
:1022600020F00100BCF17F4F38BF7047A0F1C040A3
:1022700000F0DDB94FEA3C00000A40EBC25028BF35
:102280001CF0FF0F4FEA400CE6D018BFBCF17F4FA7
:1022900038BF7047EAE79CEA026F05D010EA5C0F8E
:1022A00008BF00F00040704710B500F07AF900BF99
:1022B00064FBBE3E4FF47F0C1CEAD0121EBF1CEA2A
:1022C000D11392EA0C0F93EA0C0F00F0858090EA8C
:1022D000010F48BF42F4807240F4000C41F400004A
:1022E0002CF07F4120F07F4000B58142A2EB030239
:1022F0000FF2081CACEB504EC0F100009EF800E05D
:102300004FEA4E0E00FB0EFC38BF49004FEA2C1C72
:1023100002F5FA020CFB0EF34FEACE1E4FEA112C27
:102320004FEAC1210EEB635E42EB22420EFB0CFC36
:102330004FEA1C5300FB03114FEA112C4FEA013105
:102340000EFB0CFC4FEADC4C00FB0C11C14228BF19
:1023500009184CEB03335DF804EB10EB410143EB40
:10236000C250B2F57C0F38BF704729D512F0F00F7C
:102370001CBF00F1C04000F0004070470081828324
:102380008485868788898B8C8D8E8F919293959684
:1023900097999A9C9D9FA0A2A3A5A7A8AAACAEB00E
:1023A000B2B3B5B7B9BCBEC0C2C5C7C9CCCED1D413
:1023B000D7D9DCDFE2E6E9ECF0F3F7FAFE00000043
:1023C0004FEA400C0CF1807CBCF17E4F28BF704777
:1023D000B0F1C04000F02BB990EA010F0CEAD11324
:1023E00048BF42F48072624538BF634507D213F498
:1023F0007F0F16D080EA010000F00040704710B552
:1024000000F0CFF8097EFC3E00F005B880EA01003C
:1024100000F00040704780EA010000F0004000F04A
:1024200006B912F47F0F04BF0248704780EA01002A
:1024300000F0FDB80000C07FC10DD1F19E0206DBA7
:102440004FEA002343F0004323FA02F070470042B2
:1024500007D54FEA4001B1F1FE4F02D24FF0000024
:10246000704710B500F09DF8499224800020704715
:102470006FEA200070470000B0FA80F310FA03F210
:10248000C3F19D030AD0D90501EB1220530638BFD2
:10249000704700F1010008BF20F001007047000004
:1024A0004FF47F0C1CEAD0121EBF1CEAD11392EA33
:1024B0000C0F93EA0C0F00F0478090EA010F48BF21
:1024C00042F480724FF0004C4CEA00204CEA0121AB
:1024D00002EB0302A0FB0113A2F50002002918BFC2
:1024E00043F001035B0028BF4FEA330342EB224273
:1024F0005FEA132C4CEBC2502EBFBCEB436FB2F51E
:102500007C0F70474FEA036CBCF1004F08BF20F00E
:102510000100B2F57C0F38BF70470BD582F0FF0287
:1025200012F5803FC8BF704700F1C040D8BF00F02F
:102530000040704700F5000C5FEA4C0C48BF704744
:10254000B0F1C04000F073B890EA010F0CEAD1136B
:1025500048BF42F48072624538BF634504D280EAC6
:10256000010000F00040704710B500F01AF800BFFD
:102570008900013E00F007B800F009B85FEA410C9D
:102580005FEA1C6C08D080EA010000F050B85FEAF6
:10259000400C5FEA1C6CF6D14FF00040A0F58000C3
:1025A00070470EF1020E2EF0030E5EF8044B24422B
:1025B00004D44FEA4102B2F17F4F11D84FEA4003F1
:1025C000B3F17F4F0CD80ED14FEAD07CB2F17F4FE0
:1025D0000CEB4C0C0CF1020C08BF4CEBD17C04E072
:1025E0004FF0080C01E04FEAD17C0CEB4C0324FACD
:1025F00003F404F00704B4F1040C06D20EEB840CCF
:10260000BDE810404CF0010C6047DFE80CF0070813
:1026100002024FF00040A0F5800010BD08464200C5
:1026200018BFD2F1807288BF00F0004010BDFF21BA
:1026300041EAD050C005704780F0004090EA010F99
:102640007FF5DDAD81F0004100F007B890EA010FA1
:1026500048BF81F000413FF5D2AD421A04D882F064
:102660000042A0EB020011444FEAD0524FF07F4CE1
:102670001CEA410FA2EBD15318BF9CEA026F4AD06B
:102680004FF0004C4CEA00204CEA012121FA03FCF7
:10269000B0EB0C0C0FD412F0FE0F36D05FEA4C00FA
:1026A0001DD5001240EBC25038BF70471CF03F0FE1
:1026B00018BF70470BE0A2F101025FEA1C2040EB5B
:1026C000C25038BF70471CF07F0F18BF7047C3F16E
:1026D0002003994014BF401E20F00100704780087D
:1026E0004FEA122308BF7047B0FA80FCA2EB0C023D
:1026F000CCF1280C60FA0CF093EA122F04BF00EB27
:10270000C25070474FEAC3707047130A5FEADC108B
:1027100008BF7047F6E79CEA026F04D010EA5C0F2E
:1027200008BF0020704710B5FFF73BFF40DFF63EC3
:1027300081F000407047000058270008000000208A
:10274000400000006C0100089827000840000020AD
:102750004840000088010008000000000000000060
:102760000000000000000000000000000000000069
:102770000000000000000000000000000000000059
:102780000000000000A24A04000000000000000059
:08279000010203040607080919
:0400000508000131BD
:00000001FF
